{
  "contractName": "EcommerceStore",
  "abi": [
    {
      "constant": true,
      "inputs": [],
      "name": "productIndex",
      "outputs": [
        {
          "name": "",
          "type": "uint256"
        }
      ],
      "payable": false,
      "stateMutability": "view",
      "type": "function",
      "signature": "0xc897d5a6"
    },
    {
      "constant": true,
      "inputs": [],
      "name": "arbiter",
      "outputs": [
        {
          "name": "",
          "type": "address"
        }
      ],
      "payable": false,
      "stateMutability": "view",
      "type": "function",
      "signature": "0xfe25e00a"
    },
    {
      "inputs": [
        {
          "name": "_arbiter",
          "type": "address"
        }
      ],
      "payable": false,
      "stateMutability": "nonpayable",
      "type": "constructor",
      "signature": "constructor"
    },
    {
      "anonymous": false,
      "inputs": [
        {
          "indexed": false,
          "name": "_productId",
          "type": "uint256"
        },
        {
          "indexed": false,
          "name": "_name",
          "type": "string"
        },
        {
          "indexed": false,
          "name": "_category",
          "type": "string"
        },
        {
          "indexed": false,
          "name": "_imageLink",
          "type": "string"
        },
        {
          "indexed": false,
          "name": "_descLink",
          "type": "string"
        },
        {
          "indexed": false,
          "name": "_startTime",
          "type": "uint256"
        },
        {
          "indexed": false,
          "name": "_price",
          "type": "uint256"
        },
        {
          "indexed": false,
          "name": "_productCondition",
          "type": "uint256"
        }
      ],
      "name": "NewProduct",
      "type": "event",
      "signature": "0xd952ab5034808c75d7ae7c37cf56ef07be795c8c8d212578af61c43f81b5b2b8"
    },
    {
      "constant": false,
      "inputs": [
        {
          "name": "_name",
          "type": "string"
        },
        {
          "name": "_category",
          "type": "string"
        },
        {
          "name": "_imageLink",
          "type": "string"
        },
        {
          "name": "_descLink",
          "type": "string"
        },
        {
          "name": "_startTime",
          "type": "uint256"
        },
        {
          "name": "_price",
          "type": "uint256"
        },
        {
          "name": "_productCondition",
          "type": "uint256"
        }
      ],
      "name": "addProductToStore",
      "outputs": [],
      "payable": false,
      "stateMutability": "nonpayable",
      "type": "function",
      "signature": "0x170dd160"
    },
    {
      "constant": true,
      "inputs": [
        {
          "name": "_productId",
          "type": "uint256"
        }
      ],
      "name": "getProduct",
      "outputs": [
        {
          "name": "",
          "type": "uint256"
        },
        {
          "name": "",
          "type": "string"
        },
        {
          "name": "",
          "type": "string"
        },
        {
          "name": "",
          "type": "string"
        },
        {
          "name": "",
          "type": "string"
        },
        {
          "name": "",
          "type": "uint256"
        },
        {
          "name": "",
          "type": "uint256"
        },
        {
          "name": "",
          "type": "uint8"
        },
        {
          "name": "",
          "type": "address"
        }
      ],
      "payable": false,
      "stateMutability": "view",
      "type": "function",
      "signature": "0xb9db15b4"
    },
    {
      "constant": false,
      "inputs": [
        {
          "name": "_productId",
          "type": "uint256"
        }
      ],
      "name": "buy",
      "outputs": [],
      "payable": true,
      "stateMutability": "payable",
      "type": "function",
      "signature": "0xd96a094a"
    },
    {
      "constant": true,
      "inputs": [
        {
          "name": "_productId",
          "type": "uint256"
        }
      ],
      "name": "escrowInfo",
      "outputs": [
        {
          "name": "",
          "type": "address"
        },
        {
          "name": "",
          "type": "address"
        },
        {
          "name": "",
          "type": "address"
        },
        {
          "name": "",
          "type": "bool"
        },
        {
          "name": "",
          "type": "uint256"
        },
        {
          "name": "",
          "type": "uint256"
        }
      ],
      "payable": false,
      "stateMutability": "view",
      "type": "function",
      "signature": "0x83560525"
    },
    {
      "constant": false,
      "inputs": [
        {
          "name": "_productId",
          "type": "uint256"
        }
      ],
      "name": "releaseAmountToSeller",
      "outputs": [],
      "payable": false,
      "stateMutability": "nonpayable",
      "type": "function",
      "signature": "0x9a3a7c69"
    },
    {
      "constant": false,
      "inputs": [
        {
          "name": "_productId",
          "type": "uint256"
        }
      ],
      "name": "refundAmountToBuyer",
      "outputs": [],
      "payable": false,
      "stateMutability": "nonpayable",
      "type": "function",
      "signature": "0xcc352db7"
    }
  ],
  "bytecode": "0x608060405234801561001057600080fd5b506040516020806129c98339810180604052602081101561003057600080fd5b81019080805190602001909291905050506000808190555080600160006101000a81548173ffffffffffffffffffffffffffffffffffffffff021916908373ffffffffffffffffffffffffffffffffffffffff16021790555050612930806100996000396000f3fe60806040526004361061008e576000357c0100000000000000000000000000000000000000000000000000000000900463ffffffff168063170dd16014610093578063835605251461033e5780639a3a7c6914610438578063b9db15b414610473578063c897d5a6146106c8578063cc352db7146106f3578063d96a094a1461072e578063fe25e00a1461075c575b600080fd5b34801561009f57600080fd5b5061033c600480360360e08110156100b657600080fd5b81019080803590602001906401000000008111156100d357600080fd5b8201836020820111156100e557600080fd5b8035906020019184600183028401116401000000008311171561010757600080fd5b91908080601f016020809104026020016040519081016040528093929190818152602001838380828437600081840152601f19601f8201169050808301925050505050505091929192908035906020019064010000000081111561016a57600080fd5b82018360208201111561017c57600080fd5b8035906020019184600183028401116401000000008311171561019e57600080fd5b91908080601f016020809104026020016040519081016040528093929190818152602001838380828437600081840152601f19601f8201169050808301925050505050505091929192908035906020019064010000000081111561020157600080fd5b82018360208201111561021357600080fd5b8035906020019184600183028401116401000000008311171561023557600080fd5b91908080601f016020809104026020016040519081016040528093929190818152602001838380828437600081840152601f19601f8201169050808301925050505050505091929192908035906020019064010000000081111561029857600080fd5b8201836020820111156102aa57600080fd5b803590602001918460018302840111640100000000831117156102cc57600080fd5b91908080601f016020809104026020016040519081016040528093929190818152602001838380828437600081840152601f19601f8201169050808301925050505050505091929192908035906020019092919080359060200190929190803590602001909291905050506107b3565b005b34801561034a57600080fd5b506103776004803603602081101561036157600080fd5b8101908080359060200190929190505050610bf6565b604051808773ffffffffffffffffffffffffffffffffffffffff1673ffffffffffffffffffffffffffffffffffffffff1681526020018673ffffffffffffffffffffffffffffffffffffffff1673ffffffffffffffffffffffffffffffffffffffff1681526020018573ffffffffffffffffffffffffffffffffffffffff1673ffffffffffffffffffffffffffffffffffffffff16815260200184151515158152602001838152602001828152602001965050505050505060405180910390f35b34801561044457600080fd5b506104716004803603602081101561045b57600080fd5b8101908080359060200190929190505050610d16565b005b34801561047f57600080fd5b506104ac6004803603602081101561049657600080fd5b8101908080359060200190929190505050610dff565b604051808a8152602001806020018060200180602001806020018981526020018881526020018760018111156104de57fe5b60ff1681526020018673ffffffffffffffffffffffffffffffffffffffff1673ffffffffffffffffffffffffffffffffffffffff16815260200185810385528d818151815260200191508051906020019080838360005b83811015610550578082015181840152602081019050610535565b50505050905090810190601f16801561057d5780820380516001836020036101000a031916815260200191505b5085810384528c818151815260200191508051906020019080838360005b838110156105b657808201518184015260208101905061059b565b50505050905090810190601f1680156105e35780820380516001836020036101000a031916815260200191505b5085810383528b818151815260200191508051906020019080838360005b8381101561061c578082015181840152602081019050610601565b50505050905090810190601f1680156106495780820380516001836020036101000a031916815260200191505b5085810382528a818151815260200191508051906020019080838360005b83811015610682578082015181840152602081019050610667565b50505050905090810190601f1680156106af5780820380516001836020036101000a031916815260200191505b509d505050505050505050505050505060405180910390f35b3480156106d457600080fd5b506106dd61122a565b6040518082815260200191505060405180910390f35b3480156106ff57600080fd5b5061072c6004803603602081101561071657600080fd5b8101908080359060200190929190505050611230565b005b61075a6004803603602081101561074457600080fd5b8101908080359060200190929190505050611319565b005b34801561076857600080fd5b50610771611a70565b604051808273ffffffffffffffffffffffffffffffffffffffff1673ffffffffffffffffffffffffffffffffffffffff16815260200191505060405180910390f35b600160008082825401925050819055506107cb611a96565b61012060405190810160405280600054815260200189815260200188815260200187815260200186815260200185815260200184815260200183600181111561081057fe5b600181111561081b57fe5b81526020013373ffffffffffffffffffffffffffffffffffffffff16815250905080600260003373ffffffffffffffffffffffffffffffffffffffff1673ffffffffffffffffffffffffffffffffffffffff1681526020019081526020016000206000805481526020019081526020016000206000820151816000015560208201518160010190805190602001906108b4929190611b04565b5060408201518160020190805190602001906108d1929190611b04565b5060608201518160030190805190602001906108ee929190611b04565b50608082015181600401908051906020019061090b929190611b04565b5060a0820151816005015560c0820151816006015560e08201518160070160006101000a81548160ff0219169083600181111561094457fe5b02179055506101008201518160070160016101000a81548173ffffffffffffffffffffffffffffffffffffffff021916908373ffffffffffffffffffffffffffffffffffffffff16021790555090505033600360008054815260200190815260200160002060006101000a81548173ffffffffffffffffffffffffffffffffffffffff021916908373ffffffffffffffffffffffffffffffffffffffff1602179055507fd952ab5034808c75d7ae7c37cf56ef07be795c8c8d212578af61c43f81b5b2b860005489898989898989604051808981526020018060200180602001806020018060200188815260200187815260200186815260200185810385528c818151815260200191508051906020019080838360005b83811015610a76578082015181840152602081019050610a5b565b50505050905090810190601f168015610aa35780820380516001836020036101000a031916815260200191505b5085810384528b818151815260200191508051906020019080838360005b83811015610adc578082015181840152602081019050610ac1565b50505050905090810190601f168015610b095780820380516001836020036101000a031916815260200191505b5085810383528a818151815260200191508051906020019080838360005b83811015610b42578082015181840152602081019050610b27565b50505050905090810190601f168015610b6f5780820380516001836020036101000a031916815260200191505b50858103825289818151815260200191508051906020019080838360005b83811015610ba8578082015181840152602081019050610b8d565b50505050905090810190601f168015610bd55780820380516001836020036101000a031916815260200191505b509c5050505050505050505050505060405180910390a15050505050505050565b6000806000806000806004600088815260200190815260200160002060009054906101000a900473ffffffffffffffffffffffffffffffffffffffff1673ffffffffffffffffffffffffffffffffffffffff1663f3d259046040518163ffffffff167c010000000000000000000000000000000000000000000000000000000002815260040160c06040518083038186803b158015610c9457600080fd5b505afa158015610ca8573d6000803e3d6000fd5b505050506040513d60c0811015610cbe57600080fd5b8101908080519060200190929190805190602001909291908051906020019092919080519060200190929190805190602001909291908051906020019092919050505095509550955095509550955091939550919395565b6004600082815260200190815260200160002060009054906101000a900473ffffffffffffffffffffffffffffffffffffffff1673ffffffffffffffffffffffffffffffffffffffff166358aad10b336040518263ffffffff167c0100000000000000000000000000000000000000000000000000000000028152600401808273ffffffffffffffffffffffffffffffffffffffff1673ffffffffffffffffffffffffffffffffffffffff168152602001915050600060405180830381600087803b158015610de457600080fd5b505af1158015610df8573d6000803e3d6000fd5b5050505050565b6000606080606080600080600080610e15611a96565b60026000600360008e815260200190815260200160002060009054906101000a900473ffffffffffffffffffffffffffffffffffffffff1673ffffffffffffffffffffffffffffffffffffffff1673ffffffffffffffffffffffffffffffffffffffff16815260200190815260200160002060008c8152602001908152602001600020610120604051908101604052908160008201548152602001600182018054600181600116156101000203166002900480601f016020809104026020016040519081016040528092919081815260200182805460018160011615610100020316600290048015610f485780601f10610f1d57610100808354040283529160200191610f48565b820191906000526020600020905b815481529060010190602001808311610f2b57829003601f168201915b50505050508152602001600282018054600181600116156101000203166002900480601f016020809104026020016040519081016040528092919081815260200182805460018160011615610100020316600290048015610fea5780601f10610fbf57610100808354040283529160200191610fea565b820191906000526020600020905b815481529060010190602001808311610fcd57829003601f168201915b50505050508152602001600382018054600181600116156101000203166002900480601f01602080910402602001604051908101604052809291908181526020018280546001816001161561010002031660029004801561108c5780601f106110615761010080835404028352916020019161108c565b820191906000526020600020905b81548152906001019060200180831161106f57829003601f168201915b50505050508152602001600482018054600181600116156101000203166002900480601f01602080910402602001604051908101604052809291908181526020018280546001816001161561010002031660029004801561112e5780601f106111035761010080835404028352916020019161112e565b820191906000526020600020905b81548152906001019060200180831161111157829003601f168201915b5050505050815260200160058201548152602001600682015481526020016007820160009054906101000a900460ff16600181111561116957fe5b600181111561117457fe5b81526020016007820160019054906101000a900473ffffffffffffffffffffffffffffffffffffffff1673ffffffffffffffffffffffffffffffffffffffff1673ffffffffffffffffffffffffffffffffffffffff16815250509050806000015181602001518260400151836060015184608001518560a001518660c001518760e00151886101000151879750869650859550849450995099509950995099509950995099509950509193959799909294969850565b60005481565b6004600082815260200190815260200160002060009054906101000a900473ffffffffffffffffffffffffffffffffffffffff1673ffffffffffffffffffffffffffffffffffffffff1663a97d1b10336040518263ffffffff167c0100000000000000000000000000000000000000000000000000000000028152600401808273ffffffffffffffffffffffffffffffffffffffff1673ffffffffffffffffffffffffffffffffffffffff168152602001915050600060405180830381600087803b1580156112fe57600080fd5b505af1158015611312573d6000803e3d6000fd5b5050505050565b611321611a96565b600260006003600085815260200190815260200160002060009054906101000a900473ffffffffffffffffffffffffffffffffffffffff1673ffffffffffffffffffffffffffffffffffffffff1673ffffffffffffffffffffffffffffffffffffffff1681526020019081526020016000206000838152602001908152602001600020610120604051908101604052908160008201548152602001600182018054600181600116156101000203166002900480601f0160208091040260200160405190810160405280929190818152602001828054600181600116156101000203166002900480156114545780601f1061142957610100808354040283529160200191611454565b820191906000526020600020905b81548152906001019060200180831161143757829003601f168201915b50505050508152602001600282018054600181600116156101000203166002900480601f0160208091040260200160405190810160405280929190818152602001828054600181600116156101000203166002900480156114f65780601f106114cb576101008083540402835291602001916114f6565b820191906000526020600020905b8154815290600101906020018083116114d957829003601f168201915b50505050508152602001600382018054600181600116156101000203166002900480601f0160208091040260200160405190810160405280929190818152602001828054600181600116156101000203166002900480156115985780601f1061156d57610100808354040283529160200191611598565b820191906000526020600020905b81548152906001019060200180831161157b57829003601f168201915b50505050508152602001600482018054600181600116156101000203166002900480601f01602080910402602001604051908101604052809291908181526020018280546001816001161561010002031660029004801561163a5780601f1061160f5761010080835404028352916020019161163a565b820191906000526020600020905b81548152906001019060200180831161161d57829003601f168201915b5050505050815260200160058201548152602001600682015481526020016007820160009054906101000a900460ff16600181111561167557fe5b600181111561168057fe5b81526020016007820160019054906101000a900473ffffffffffffffffffffffffffffffffffffffff1673ffffffffffffffffffffffffffffffffffffffff1673ffffffffffffffffffffffffffffffffffffffff16815250509050600073ffffffffffffffffffffffffffffffffffffffff1681610100015173ffffffffffffffffffffffffffffffffffffffff1614151561171c57600080fd5b8060c00151341015151561172f57600080fd5b3381610100019073ffffffffffffffffffffffffffffffffffffffff16908173ffffffffffffffffffffffffffffffffffffffff168152505080600260006003600086815260200190815260200160002060009054906101000a900473ffffffffffffffffffffffffffffffffffffffff1673ffffffffffffffffffffffffffffffffffffffff1673ffffffffffffffffffffffffffffffffffffffff1681526020019081526020016000206000848152602001908152602001600020600082015181600001556020820151816001019080519060200190611812929190611b04565b50604082015181600201908051906020019061182f929190611b04565b50606082015181600301908051906020019061184c929190611b04565b506080820151816004019080519060200190611869929190611b04565b5060a0820151816005015560c0820151816006015560e08201518160070160006101000a81548160ff021916908360018111156118a257fe5b02179055506101008201518160070160016101000a81548173ffffffffffffffffffffffffffffffffffffffff021916908373ffffffffffffffffffffffffffffffffffffffff16021790555090505060003483336003600087815260200190815260200160002060009054906101000a900473ffffffffffffffffffffffffffffffffffffffff16600160009054906101000a900473ffffffffffffffffffffffffffffffffffffffff16611956611b84565b808581526020018473ffffffffffffffffffffffffffffffffffffffff1673ffffffffffffffffffffffffffffffffffffffff1681526020018373ffffffffffffffffffffffffffffffffffffffff1673ffffffffffffffffffffffffffffffffffffffff1681526020018273ffffffffffffffffffffffffffffffffffffffff1673ffffffffffffffffffffffffffffffffffffffff1681526020019450505050506040518091039082f080158015611a14573d6000803e3d6000fd5b5090509050806004600085815260200190815260200160002060006101000a81548173ffffffffffffffffffffffffffffffffffffffff021916908373ffffffffffffffffffffffffffffffffffffffff160217905550505050565b600160009054906101000a900473ffffffffffffffffffffffffffffffffffffffff1681565b610120604051908101604052806000815260200160608152602001606081526020016060815260200160608152602001600081526020016000815260200160006001811115611ae157fe5b8152602001600073ffffffffffffffffffffffffffffffffffffffff1681525090565b828054600181600116156101000203166002900490600052602060002090601f016020900481019282601f10611b4557805160ff1916838001178555611b73565b82800160010185558215611b73579182015b82811115611b72578251825591602001919060010190611b57565b5b509050611b809190611b94565b5090565b604051610d4b80611bba83390190565b611bb691905b80821115611bb2576000816000905550600101611b9a565b5090565b9056fe6080604052604051608080610d4b8339810180604052608081101561002357600080fd5b8101908080519060200190929190805190602001909291908051906020019092919080519060200190929190505050826000806101000a81548173ffffffffffffffffffffffffffffffffffffffff021916908373ffffffffffffffffffffffffffffffffffffffff16021790555081600160006101000a81548173ffffffffffffffffffffffffffffffffffffffff021916908373ffffffffffffffffffffffffffffffffffffffff16021790555080600260006101000a81548173ffffffffffffffffffffffffffffffffffffffff021916908373ffffffffffffffffffffffffffffffffffffffff1602179055506000600960006101000a81548160ff0219169083151502179055503460048190555033600960016101000a81548173ffffffffffffffffffffffffffffffffffffffff021916908373ffffffffffffffffffffffffffffffffffffffff1602179055508360038190555050505050610bba806101916000396000f3fe6080604052600436106100ba576000357c0100000000000000000000000000000000000000000000000000000000900463ffffffff16806308551a53146100bf5780630bda4dbf1461011657806358aad10b146101415780637150d8ae146101925780638da5cb5b146101e9578063a97d1b1014610240578063aa8c217c14610291578063b8d08db2146102bc578063c5ce3911146102e7578063d1a52e3014610312578063f3d2590414610341578063fe25e00a14610417575b600080fd5b3480156100cb57600080fd5b506100d461046e565b604051808273ffffffffffffffffffffffffffffffffffffffff1673ffffffffffffffffffffffffffffffffffffffff16815260200191505060405180910390f35b34801561012257600080fd5b5061012b610494565b6040518082815260200191505060405180910390f35b34801561014d57600080fd5b506101906004803603602081101561016457600080fd5b81019080803573ffffffffffffffffffffffffffffffffffffffff16906020019092919050505061049a565b005b34801561019e57600080fd5b506101a7610779565b604051808273ffffffffffffffffffffffffffffffffffffffff1673ffffffffffffffffffffffffffffffffffffffff16815260200191505060405180910390f35b3480156101f557600080fd5b506101fe61079e565b604051808273ffffffffffffffffffffffffffffffffffffffff1673ffffffffffffffffffffffffffffffffffffffff16815260200191505060405180910390f35b34801561024c57600080fd5b5061028f6004803603602081101561026357600080fd5b81019080803573ffffffffffffffffffffffffffffffffffffffff1690602001909291905050506107c4565b005b34801561029d57600080fd5b506102a6610aa2565b6040518082815260200191505060405180910390f35b3480156102c857600080fd5b506102d1610aa8565b6040518082815260200191505060405180910390f35b3480156102f357600080fd5b506102fc610aae565b6040518082815260200191505060405180910390f35b34801561031e57600080fd5b50610327610ab4565b604051808215151515815260200191505060405180910390f35b34801561034d57600080fd5b50610356610ac7565b604051808773ffffffffffffffffffffffffffffffffffffffff1673ffffffffffffffffffffffffffffffffffffffff1681526020018673ffffffffffffffffffffffffffffffffffffffff1673ffffffffffffffffffffffffffffffffffffffff1681526020018573ffffffffffffffffffffffffffffffffffffffff1673ffffffffffffffffffffffffffffffffffffffff16815260200184151515158152602001838152602001828152602001965050505050505060405180910390f35b34801561042357600080fd5b5061042c610b68565b604051808273ffffffffffffffffffffffffffffffffffffffff1673ffffffffffffffffffffffffffffffffffffffff16815260200191505060405180910390f35b600160009054906101000a900473ffffffffffffffffffffffffffffffffffffffff1681565b60085481565b60001515600960009054906101000a900460ff1615151415156104bc57600080fd5b600960019054906101000a900473ffffffffffffffffffffffffffffffffffffffff1673ffffffffffffffffffffffffffffffffffffffff163373ffffffffffffffffffffffffffffffffffffffff1614151561051857600080fd5b6000809054906101000a900473ffffffffffffffffffffffffffffffffffffffff1673ffffffffffffffffffffffffffffffffffffffff168173ffffffffffffffffffffffffffffffffffffffff1614806105c05750600160009054906101000a900473ffffffffffffffffffffffffffffffffffffffff1673ffffffffffffffffffffffffffffffffffffffff168173ffffffffffffffffffffffffffffffffffffffff16145b806106185750600260009054906101000a900473ffffffffffffffffffffffffffffffffffffffff1673ffffffffffffffffffffffffffffffffffffffff168173ffffffffffffffffffffffffffffffffffffffff16145b8015610675575060011515600560008373ffffffffffffffffffffffffffffffffffffffff1673ffffffffffffffffffffffffffffffffffffffff16815260200190815260200160002060009054906101000a900460ff16151514155b156106e4576001600560008373ffffffffffffffffffffffffffffffffffffffff1673ffffffffffffffffffffffffffffffffffffffff16815260200190815260200160002060006101000a81548160ff02191690831515021790555060016007600082825401925050819055505b6002600754141561077657600160009054906101000a900473ffffffffffffffffffffffffffffffffffffffff1673ffffffffffffffffffffffffffffffffffffffff166108fc6004549081150290604051600060405180830381858888f19350505050158015610759573d6000803e3d6000fd5b506001600960006101000a81548160ff0219169083151502179055505b50565b6000809054906101000a900473ffffffffffffffffffffffffffffffffffffffff1681565b600960019054906101000a900473ffffffffffffffffffffffffffffffffffffffff1681565b60001515600960009054906101000a900460ff1615151415156107e657600080fd5b600960019054906101000a900473ffffffffffffffffffffffffffffffffffffffff1673ffffffffffffffffffffffffffffffffffffffff163373ffffffffffffffffffffffffffffffffffffffff1614151561084257600080fd5b6000809054906101000a900473ffffffffffffffffffffffffffffffffffffffff1673ffffffffffffffffffffffffffffffffffffffff168173ffffffffffffffffffffffffffffffffffffffff1614806108ea5750600160009054906101000a900473ffffffffffffffffffffffffffffffffffffffff1673ffffffffffffffffffffffffffffffffffffffff168173ffffffffffffffffffffffffffffffffffffffff16145b806109425750600260009054906101000a900473ffffffffffffffffffffffffffffffffffffffff1673ffffffffffffffffffffffffffffffffffffffff168173ffffffffffffffffffffffffffffffffffffffff16145b801561099f575060011515600660008373ffffffffffffffffffffffffffffffffffffffff1673ffffffffffffffffffffffffffffffffffffffff16815260200190815260200160002060009054906101000a900460ff16151514155b15610a0e576001600660008373ffffffffffffffffffffffffffffffffffffffff1673ffffffffffffffffffffffffffffffffffffffff16815260200190815260200160002060006101000a81548160ff02191690831515021790555060016008600082825401925050819055505b60026008541415610a9f576000809054906101000a900473ffffffffffffffffffffffffffffffffffffffff1673ffffffffffffffffffffffffffffffffffffffff166108fc6004549081150290604051600060405180830381858888f19350505050158015610a82573d6000803e3d6000fd5b506001600960006101000a81548160ff0219169083151502179055505b50565b60045481565b60075481565b60035481565b600960009054906101000a900460ff1681565b6000806000806000806000809054906101000a900473ffffffffffffffffffffffffffffffffffffffff16600160009054906101000a900473ffffffffffffffffffffffffffffffffffffffff16600260009054906101000a900473ffffffffffffffffffffffffffffffffffffffff16600960009054906101000a900460ff16600754600854859550849450955095509550955095509550909192939495565b600260009054906101000a900473ffffffffffffffffffffffffffffffffffffffff168156fea165627a7a7230582017bd2a24ddf98e6090b56bfda304cc20f72380e54142b2e47690f81e504f397e0029a165627a7a7230582019d0655984ee0e5f933ee33c8cd28d676f58c36a58385b358d4904e98c855e730029",
  "source": "pragma solidity ^0.5.0; //change\n\nimport \"./Escrow.sol\";\n\ncontract EcommerceStore {\n\n    enum ProductCondition {New, Used}\n\n    uint public productIndex;\n\n    address public arbiter;\n\n    mapping (address => mapping(uint => Product)) stores;\n    mapping (uint => address payable) productIdInStore; //change\n\n    mapping (uint => address ) productEscrow;\n    struct Product {\n        uint id;\n        string name;\n        string category;\n        string imageLink;\n        string descLink;\n        uint startTime;\n        uint price;\n        ProductCondition condition;\n        address buyer;\n    }\n\n    event NewProduct(uint _productId, string _name, string _category, string _imageLink,\n                    string _descLink, uint _startTime, uint _price, uint _productCondition);\n\n    constructor(address _arbiter) public {\n        productIndex = 0;\n        arbiter = _arbiter;\n    }\n\n    function addProductToStore(string memory _name, string memory _category, string memory _imageLink,\n        string memory _descLink, uint _startTime, uint _price, uint _productCondition) public {\n//chnage\n        productIndex += 1;\n        Product memory product = Product(productIndex, _name, _category, _imageLink,\n            _descLink, _startTime, _price, ProductCondition(_productCondition),msg.sender); //change the left one 0 ->msg.sender\n        stores[msg.sender][productIndex] = product;\n        productIdInStore[productIndex] = msg.sender;\n        emit NewProduct(productIndex, _name, _category, _imageLink, _descLink, _startTime,\n                       _price, _productCondition);\n    }\n\n    function getProduct(uint _productId) public view returns (uint, string memory, string memory, string memory,\n        string memory, uint, uint, ProductCondition, address) { //chnage\n\n        Product memory product = stores[productIdInStore[_productId]][_productId]; //change\n        return (product.id, product.name, product.category, product.imageLink,\n            product.descLink, product.startTime, product.price,\n            product.condition, product.buyer);\n    }\n\n    function buy(uint _productId) payable public {  //change\n        Product memory product = stores[productIdInStore[_productId]][_productId]; //chnage\n        require(product.buyer == address(0));\n        require(msg.value >= product.price);\n        product.buyer = msg.sender;\n        stores[productIdInStore[_productId]][_productId] = product;\n        Escrow escrow = (new Escrow).value(msg.value)(_productId, msg.sender, productIdInStore[_productId], arbiter);\n\n        productEscrow[_productId] = address(escrow); //chnage explicite conversion of type\n    }\n\n    function escrowInfo(uint _productId) view public returns (address, address, address, bool, uint, uint) {\n      return Escrow(productEscrow[_productId]).escrowInfo();\n    }\n\n    function releaseAmountToSeller(uint _productId) public {\n      Escrow(productEscrow[_productId]).releaseAmountToSeller(msg.sender);\n    }\n\n    function refundAmountToBuyer(uint _productId) public {\n      Escrow(productEscrow[_productId]).refundAmountToBuyer(msg.sender);\n    }\n}\n",
  "sourcePath": "/home/pmaheshwari/Downloads/ebay-on-ethereum/contracts/EcommerceStore.sol",
  "compiler": {
    "name": "solc",
    "version": "0.5.0+commit.1d4f565a.Emscripten.clang"
  },
  "schemaVersion": "3.0.2",
  "updatedAt": "2019-02-17T08:10:42.236Z",
  "devdoc": {
    "methods": {}
  },
  "userdoc": {
    "methods": {}
  }
}